:100000000C9434000C9451000C9451000C94510049
:100010000C9451000C9451000C9451000C9451001C
:100020000C9451000C9451000C9451000C9451000C
:100030000C9451000C9451000C94E5020C94510066
:100040000C9451000C9451000C945A020C945100E1
:100050000C9495020C9451000C9451000C94510096
:100060000C9451000C94510011241FBECFEFD8E026
:10007000DEBFCDBF11E0A0E0B1E0E2EDFCE002C0E8
:1000800005900D92AA32B107D9F722E0AAE2B1E0B9
:1000900001C01D92AB3AB207E1F70E94F9030C943C
:1000A00067060C94000088ED8093C1008EE0809379
:1000B000C2001092C50083E38093C400089590911C
:1000C000C0008091C6009C7109F08FEF089514BCA8
:1000D00015BC8EE787BD86E388BD10926E0008953B
:1000E00085B5846085BD0895EEE6F0E0808182608C
:1000F0008083089510922D01EEE2F1E082E991E013
:100100001192E817F907E1F7089510922C01E2E93E
:10011000F1E086EF91E01192E817F907E1F7089511
:1001200081E080935A020E9453000E947A000E944C
:1001300085000E9467000E9470000E94740008956C
:100140006623F9F0FC016150262F30E02F5F3F4F0E
:10015000AC01420F531F8FEF9FEF2191822728E0C0
:1001600080FF07C09695879531E0832730EA932773
:1001700002C096958795215099F7E417F50769F71E
:1001800002C08FEF9FEF9827892798270895CF9374
:10019000DF9380912E018330D9F460912D01C62F19
:1001A000D0E062508EE291E00E94A000AE01425D7C
:1001B0005E4FFA013297208130E0322F22273196AC
:1001C0004081242B41E02817390719F040E001C095
:1001D0004FEF842FDF91CF910895CF93DF93A2E962
:1001E000B1E083E08C93EEE2F1E0818111968C9393
:1001F000A281B0E0BA2FAA278381A82BAD32B10526
:1002000060F4448150E0542F44278581482B9A01A3
:10021000CD01840F951F8E9780F0C2E9D1E083E86D
:100220008A8382E08B8364E0CE010E94A0009C83DD
:100230008D8386E080932B0131C0842F880F8093BB
:100240009401232BC9F0AA0FBB1FAA50BE4FE5E9AA
:10025000F1E09A01220F331F2B563E4F8C911196DD
:100260009C9111971296908381833296E217F3073F
:10027000A9F7C42FCC0F01C0C0E0609194016D5F5D
:1002800082E991E00E94A000EC2FF0E0EE56FE4FD4
:100290009383848345E04C0F40932B01DF91CF91F2
:1002A0000895CF93DF93EEE2F1E0828190E0982F02
:1002B00088272381822B85309105A8F0C2E9D1E0FF
:1002C00083E0888380912F01898386E88A8382E096
:1002D0008B8364E0CE010E94A0009C838D8386E026
:1002E00080932B0129C0880F991FFC01EA50FE4F13
:1002F000AEE2B1E014968C91149790E0982F882785
:1003000015962C911597822B91838083FD01A2E98C
:10031000B1E024E331E081918D93E217F307D9F73F
:1003200066E082E991E00E94A000E2E9F1E09683B4
:10033000878388E080932B01DF91CF9108958F927E
:100340009F92AF92BF92DF92EF92FF920F931F9313
:10035000CF93DF93EEE2F1E0228130E0322F2227CB
:100360008381282B2D32310588F4848190E0982FE9
:1003700088274581842B820F931F8E9738F46091D4
:10038000340170E061157105B1F46EC0C2E9D1E0CD
:1003900083E0888380912F01898380E98A8382E0CA
:1003A0008B8364E0CE010E94A0009C838D8386E055
:1003B00080932B0160C0A5E3B1E0E901CC0FDD1F04
:1003C000FE01EA50FE4FCE01805B9D4F5C0140E094
:1003D00050E08C9190E0982F882711961C911197EE
:1003E000812B80839183329625303105E0F089019D
:1003F0000550110900FF1AC04801969487947F01A7
:10040000C4E0EC1AF108E701D880F9808401000FFC
:10041000111F000F111F055A1D4FE801F882D982E4
:100420009A838B8303C0E501888399834E5F5F4F76
:1004300012962F5F3F4FD2E0AD0EB11C4617570703
:1004400040F212C081918D93E217F307D9F766E06D
:1004500082E991E00E94A000E2E9F1E096838783BF
:1004600088E080932B0107C0EEE2F1E0A2E9B1E061
:1004700024E331E0E7CFDF91CF911F910F91FF90FF
:10048000EF90DF90BF90AF909F908F9008958091F4
:100490002F01833011F40E94ED0080912F018630EE
:1004A00011F40E94510180912F01803111F40E94BA
:1004B0009F0108951F920F920FB60F9211242F9350
:1004C0003F934F935F936F937F938F939F93AF93DC
:1004D000BF93EF93FF930E945F0090915A02913077
:1004E00021F492E090935A0202C0923061F490910C
:1004F0002D01943640F4E92FF0E0E25DFE4F808359
:100500009F5F90932D0116BCFF91EF91BF91AF912A
:100510009F918F917F916F915F914F913F912F911B
:100520000F900FBE0F901F9018951F920F920FB64D
:100530000F9211242F933F934F935F936F937F9369
:100540008F939F93AF93BF93EF93FF9381E080933B
:100550005A02E0912C0180912B01E81760F4F0E041
:10056000EE56FE4F80818093C60080912C018F5FF4
:1005700080932C0119C081E0809328010E9485009E
:1005800080912A01882381F00E94470283E08093B2
:100590005A0210922801809192018093C6008091A6
:1005A0002C018F5F80932C01FF91EF91BF91AF9150
:1005B0009F918F917F916F915F914F913F912F917B
:1005C0000F900FBE0F901F9018951F920F920FB6AD
:1005D0000F9211242F933F934F935F936F937F93C9
:1005E0008F939F93AF93BF93EF93FF9316BC80912C
:1005F0005A02823051F584E080935A020E94C7006B
:100600008093290195E090935A028130C9F480913A
:100610002801811104C081E080932A0116C00E9444
:10062000470283E080935A02109228018091920140
:100630008093C60080912C018F5F80932C0103C0B2
:1006400081E080935A020E947A00FF91EF91BF915E
:10065000AF919F918F917F916F915F914F913F915A
:100660002F910F900FBE0F901F901895219AE0E8E0
:10067000F0E0808183688083E1E8F0E08081886039
:100680008083EFE6F0E080818083E9E8F0E010828B
:100690008FEF80830895E1E8F0E0808183608083BC
:1006A00008951092890020E030E048EC52E40E9466
:1006B000080520E03FEF4FE757E40E94FA050E944B
:1006C0007A05609388000895FC01148615861686C5
:1006D0001786108A118A128A138A108E118E128E32
:1006E000138E08954F925F926F927F928F929F9296
:1006F000AF92BF92CF92DF92EF92FF92CF93DF93B0
:1007000000D000D000D0CDB7DEB79E838D83DC0152
:100710001C96CD90DD90ED90FC901F972D913D9112
:100720004D915C91C701B6010E94FA054B015C0135
:10073000ED81FE81648B758B868B978B248135814F
:1007400046815781C701B6010E94FA05AD81BE817D
:1007500058962D913D914D915C915B970E949C0420
:100760002B013C01ED81FE81608F718F828F938F11
:100770002089318942895389C701B6010E949B04AF
:10078000AD81BE8118962D913D914D915C911B9745
:100790000E94FA0569837A838B839C83ED81FE81B5
:1007A000648F758F868F978FC08AD18AE28AF38A89
:1007B000A3019201C501B4010E949C0429813A81E0
:1007C0004B815C810E949C0426960FB6F894DEBF94
:1007D0000FBECDBFDF91CF91FF90EF90DF90CF9014
:1007E000BF90AF909F908F907F906F905F904F9051
:1007F0000895259A0E9490000E9436030E944B03A0
:1008000080E091E00E9464037894CBE5D2E000E0C0
:1008100011E00F2EF6EFEF2EF1E0FF2EF02D2881E4
:1008200039814A815B816C817D818E819F810E94AB
:100830009B04688779878A879B87D8011C966D936C
:100840007D938D939C931F97C8010E947203688FBC
:10085000798F8A8F9B8F0E945103F80124895589D3
:1008600046893789822F952FA42FB32F8C879D8798
:10087000AE87BF87808DE18DD8015A963C915A97FB
:100880005B969C915B97482F5E2F632F792F488B47
:10089000598B6A8B7B8B5C964D915D916D917C91B0
:1008A0005F974C8B5D8B6E8B7F8B488550E0542F10
:1008B00044279985492BF701538B428B4A8550E099
:1008C000542F44279B85492B558B448B488D50E0F2
:1008D000542F4427998D492B53A342A34A8D50E0AE
:1008E000542F44279B8D492B55A344A330E0322F2E
:1008F00022279D85292B378B268B2E8530E0322FA2
:1009000022279F85292B318F208F90E0982F8827D1
:100910002989822B938F828F8A8990E0982F88274C
:100920002B89822B958F848F8FE39CE90197F1F7B8
:1009300000C0000074CF5058BB27AA270E94B30400
:100940000C94C0050E94B20538F00E94B90520F051
:1009500039F49F3F19F426F40C94AF050EF4E0959A
:10096000E7FB0C94A905E92F0E94D10558F3BA17AB
:10097000620773078407950720F079F4A6F50C94B5
:10098000F3050EF4E0950B2EBA2FA02D0B01B90143
:1009900090010C01CA01A0011124FF27591B99F0F5
:1009A000593F50F4503E68F11A16F040A22F232F01
:1009B000342F4427585FF3CF469537952795A79551
:1009C000F0405395C9F77EF41F16BA0B620B730BF8
:1009D000840BBAF09150A1F0FF0FBB1F661F771F69
:1009E000881FC2F70EC0BA0F621F731F841F48F41E
:1009F000879577956795B795F7959E3F08F0B0CFA7
:100A00009395880F08F09927EE0F9795879508958D
:100A10000E941C050C94C0050E94B90558F00E9464
:100A2000B20540F029F45F3F29F00C94A90551115B
:100A30000C94F4050C94AF050E94D10568F399233A
:100A4000B1F3552391F3951B550BBB27AA276217CA
:100A50007307840738F09F5F5F4F220F331F441FD7
:100A6000AA1FA9F335D00E2E3AF0E0E832D091500B
:100A70005040E695001CCAF72BD0FE2F29D0660FF8
:100A8000771F881FBB1F261737074807AB07B0E83B
:100A900009F0BB0B802DBF01FF2793585F4F3AF041
:100AA0009E3F510578F00C94A9050C94F4055F3F26
:100AB000E4F3983ED4F3869577956795B795F795C7
:100AC0009F5FC9F7880F911D9695879597F90895AF
:100AD000E1E0660F771F881FBB1F6217730784074B
:100AE000BA0720F0621B730B840BBA0BEE1F88F75A
:100AF000E09508950E94D90588F09F5798F0B92F86
:100B00009927B751B0F0E1F0660F771F881F991F42
:100B10001AF0BA95C9F714C0B13091F00E94F305EC
:100B2000B1E008950C94F305672F782F8827B85FFC
:100B300039F0B93FCCF3869577956795B395D9F79A
:100B40003EF490958095709561957F4F8F4F9F4FA4
:100B5000089597F99F6780E870E060E008959FEF3F
:100B600080EC089500240A94161617061806090644
:100B7000089500240A941216130614060506089513
:100B8000092E0394000C11F4882352F0BB0F40F49B
:100B9000BF2B11F460FF04C06F5F7F4F8F4F9F4FDB
:100BA000089557FD9058440F551F59F05F3F71F05D
:100BB0004795880F97FB991F61F09F3F79F08795C4
:100BC0000895121613061406551FF2CF4695F1DF4D
:100BD00008C0161617061806991FF1CF86957105DD
:100BE000610508940895E894BB2766277727CB0111
:100BF00097F908950E940D060C94C0050E94B20555
:100C000038F00E94B90520F0952311F00C94A90545
:100C10000C94AF0511240C94F4050E94D10570F3D7
:100C2000959FC1F3950F50E0551F629FF001729F91
:100C3000BB27F00DB11D639FAA27F00DB11DAA1FA0
:100C4000649F6627B00DA11D661F829F2227B00DED
:100C5000A11D621F739FB00DA11D621F839FA00D78
:100C6000611D221F749F3327A00D611D231F849FC8
:100C7000600D211D822F762F6A2F11249F5750401F
:100C80009AF0F1F088234AF0EE0FFF1FBB1F661F9A
:100C9000771F881F91505040A9F79E3F510580F063
:100CA0000C94A9050C94F4055F3FE4F3983ED4F34B
:100CB000869577956795B795F795E7959F5FC1F707
:100CC000FE2B880F911D9695879597F90895F894B6
:020CD000FFCF54
:100CD2000000803F0AD7233C000000000000000013
:100CE2000000000000000000000000000000000002
:0A0CF200000000000000000001FAFD
:00000001FF
