S013000048656C6C6F20776F726C642E73726563D5
S11300000C9434000C9451000C9451000C94510045
S11300100C9451000C9451000C9451000C94510018
S11300200C9451000C9451000C9451000C94510008
S11300300C9451000C9451000C94A2020C945100A5
S11300400C9451000C9451000C9418020C9451001F
S11300500C9452020C9451000C9451000C945100D5
S11300600C9451000C94510011241FBECFEFD8E022
S1130070DEBFCDBF11E0A0E0B1E0E6EFF5E002C0E5
S113008005900D92A230B107D9F722E0A2E0B1E0C9
S113009001C01D92A338B207E1F70E94F3020C9449
S11300A0F9020C94000088ED8093C1008EE08093E7
S11300B0C2001092C50083E38093C4000895909118
S11300C0C0008091C6009C7109F08FEF089514BCA4
S11300D015BC8EE787BD86E388BD10926E00089537
S11300E085B5846085BD0895EEE6F0E08081826088
S11300F08083089510920501E6E0F1E08AE691E03C
S11301001192E817F907E1F7089510920401EAE65D
S1130110F1E08EEC91E01192E817F907E1F7089508
S113012081E0809332020E9453000E947A000E9470
S113013085000E9467000E9470000E947400089568
S11301406623F9F0FC016150262F30E02F5F3F4F0A
S1130150AC01420F531F8FEF9FEF2191822728E0BC
S113016080FF07C09695879531E0832730EA93276F
S113017002C096958795215099F7E417F50769F71A
S113018002C08FEF9FEF9827892798270895CF9370
S1130190DF93809106018330D9F460910501C62F65
S11301A0D0E0625086E091E00E94A000AE014A5F78
S11301B05E4FFA013297208130E0322F22273196A8
S11301C04081242B41E02817390719F040E001C091
S11301D04FEF842FDF91CF910895CF93DF93AAE659
S11301E0B1E083E08C93E6E0F1E0818111968C9399
S11301F0A281B0E0BA2FAA278381A82BAD32B10522
S113020060F4448150E0542F44278581482B9A019F
S1130210CD01840F951F8E9780F0CAE6D1E083E864
S11302208A8382E08B8364E0CE010E94A0009C83D9
S11302308D8386E08093030131C0842F880F8093DF
S11302406C01232BC9F0AA0FBB1FA253BE4FEDE6CE
S1130250F1E09A01220F331F23593E4F8C911196DE
S11302609C9111971296908381833296E217F3073B
S1130270A9F7C42FCC0F01C0C0E060916C016D5F81
S11302808AE691E00E94A000EC2FF0E0E659FE4FD0
S11302909383848345E04C0F40930301DF91CF9116
S11302A00895CF93DF93E6E0F1E0828190E0982F08
S11302B088272381822B85309105A8F0CAE6D1E0F6
S11302C083E0888380910701898386E88A8382E0BA
S11302D08B8364E0CE010E94A0009C838D8386E022
S11302E08093030129C0880F991FFC01E253FE4F3C
S11302F0A6E0B1E014968C91149790E0982F88278B
S113030015962C911597822B91838083FD01AAE683
S1130310B1E02CE031E081918D93E217F307D9F736
S113032066E08AE691E00E94A000EAE6F1E09683A6
S1130330878388E080930301DF91CF910895CF9361
S1130340DF93E6E0F1E0A281B0E0BA2FAA2783812F
S1130350A82BAD32B10588F4848190E0982F8827CA
S11303602581822B8A0F9B1F8E9738F460910C0194
S113037070E061157105B1F43EC0CAE6D1E083E0D6
S1130380888380910701898380E98A8382E08B8353
S113039064E0CE010E94A0009C838D8386E080935C
S11303A0030130C0EDE0F1E0AA0FBB1FA253BE4F22
S11303B020E030E0808190E0982F88274181842BD1
S11303C08D939D932E5F3F4F32962617370790F3F8
S11303D012C081918D93E217F307D9F766E08AE69C
S11303E091E00E94A000EAE6F1E09683878388E02A
S11303F08093030107C0E6E0F1E0AAE6B1E02CE057
S113040031E0E7CFDF91CF910895809107018330E8
S113041011F40E94ED0080910701863011F40E94CE
S1130420510180910701803111F40E949F010895C8
S11304301F920F920FB60F9211242F933F934F9355
S11304405F936F937F938F939F93AF93BF93EF9338
S1130450FF930E945F0090913202913021F492E068
S11304609093320202C0923059F4E0910501E436CF
S113047038F4EF5FE0930501F0E0EA5FFE4F80831C
S113048016BCFF91EF91BF91AF919F918F917F9196
S11304906F915F914F913F912F910F900FBE0F90ED
S11304A01F9018951F920F920FB60F9211242F933D
S11304B03F934F935F936F937F938F939F93AF93E8
S11304C0BF93EF93FF9381E080933202E0910401A4
S11304D080910301E81760F4F0E0E659FE4F808153
S11304E08093C600809104018F5F8093040119C03A
S11304F081E0809300010E9485008091020188239D
S113050081F00E94050283E0809332021092000180
S113051080916A018093C600809104018F5F80936B
S11305200401FF91EF91BF91AF919F918F917F91C2
S11305306F915F914F913F912F910F900FBE0F904C
S11305401F9018951F920F920FB60F9211242F939C
S11305503F934F935F936F937F938F939F93AF9347
S1130560BF93EF93FF9316BC80913202823051F512
S113057084E0809332020E94C7008093010195E0D9
S1130580909332028130C9F480910001811104C03A
S113059081E08093020116C00E94050283E08093EB
S11305A032021092000180916A018093C60080910A
S11305B004018F5F8093040103C081E080933202C1
S11305C00E947A00FF91EF91BF91AF919F918F911B
S11305D07F916F915F914F913F912F910F900FBE3B
S11305E00F901F90189580E284B90E94900078942F
S10905F0FFCFF894FFCFD9
S10505F601FA04
S9030000FC
