S013000048656C6C6F20776F726C642E73726563D5
S11300000C9434000C9451000C9451000C94510045
S11300100C9451000C9451000C9451000C94510018
S11300200C9451000C9451000C9451000C94510008
S11300300C9451000C9451000C94E5020C94510062
S11300400C9451000C9451000C945A020C945100DD
S11300500C9495020C9451000C9451000C94510092
S11300600C9451000C94510011241FBECFEFD8E022
S1130070DEBFCDBF11E0A0E0B1E0E8EDF9E002C0E1
S113008005900D92AA32B107D9F722E0AAE2B1E0B5
S113009001C01D92AB3AB207E1F70E9470030C94C1
S11300A0EA040C94000088ED8093C1008EE08093F4
S11300B0C2001092C50083E38093C4000895909118
S11300C0C0008091C6009C7109F08FEF089514BCA4
S11300D015BC8EE787BD86E388BD10926E00089537
S11300E085B5846085BD0895EEE6F0E08081826088
S11300F08083089510922D01EEE2F1E082E991E00F
S11301001192E817F907E1F7089510922C01E2E93A
S1130110F1E086EF91E01192E817F907E1F708950D
S113012081E080935A020E9453000E947A000E9448
S113013085000E9467000E9470000E947400089568
S11301406623F9F0FC016150262F30E02F5F3F4F0A
S1130150AC01420F531F8FEF9FEF2191822728E0BC
S113016080FF07C09695879531E0832730EA93276F
S113017002C096958795215099F7E417F50769F71A
S113018002C08FEF9FEF9827892798270895CF9370
S1130190DF9380912E018330D9F460912D01C62F15
S11301A0D0E062508EE291E00E94A000AE01425D78
S11301B05E4FFA013297208130E0322F22273196A8
S11301C04081242B41E02817390719F040E001C091
S11301D04FEF842FDF91CF910895CF93DF93A2E95E
S11301E0B1E083E08C93EEE2F1E0818111968C938F
S11301F0A281B0E0BA2FAA278381A82BAD32B10522
S113020060F4448150E0542F44278581482B9A019F
S1130210CD01840F951F8E9780F0C2E9D1E083E869
S11302208A8382E08B8364E0CE010E94A0009C83D9
S11302308D8386E080932B0131C0842F880F8093B7
S11302409401232BC9F0AA0FBB1FAA50BE4FE5E9A6
S1130250F1E09A01220F331F2B563E4F8C911196D9
S11302609C9111971296908381833296E217F3073B
S1130270A9F7C42FCC0F01C0C0E0609194016D5F59
S113028082E991E00E94A000EC2FF0E0EE56FE4FD0
S11302909383848345E04C0F40932B01DF91CF91EE
S11302A00895CF93DF93EEE2F1E0828190E0982FFE
S11302B088272381822B85309105A8F0C2E9D1E0FB
S11302C083E0888380912F01898386E88A8382E092
S11302D08B8364E0CE010E94A0009C838D8386E022
S11302E080932B0129C0880F991FFC01EA50FE4F0F
S11302F0AEE2B1E014968C91149790E0982F882781
S113030015962C911597822B91838083FD01A2E988
S1130310B1E024E331E081918D93E217F307D9F73B
S113032066E082E991E00E94A000E2E9F1E09683B0
S1130330878388E080932B01DF91CF9108958F927A
S11303409F92AF92BF92DF92EF92FF920F931F930F
S1130350CF93DF93EEE2F1E0228130E0322F2227C7
S11303608381282B2D32310588F4848190E0982FE5
S113037088274581842B820F931F8E9738F46091D0
S1130380340170E061157105B1F46EC0C2E9D1E0C9
S113039083E0888380912F01898380E98A8382E0C6
S11303A08B8364E0CE010E94A0009C838D8386E051
S11303B080932B0160C0A5E3B1E0E901CC0FDD1F00
S11303C0FE01EA50FE4FCE01805B9D4F5C0140E090
S11303D050E08C9190E0982F882711961C911197EA
S11303E0812B80839183329625303105E0F0890199
S11303F00550110900FF1AC04801969487947F01A3
S1130400C4E0EC1AF108E701D880F9808401000FF8
S1130410111F000F111F055A1D4FE801F882D982E0
S11304209A838B8303C0E501888399834E5F5F4F72
S113043012962F5F3F4FD2E0AD0EB11C46175707FF
S113044040F212C081918D93E217F307D9F766E069
S113045082E991E00E94A000E2E9F1E096838783BB
S113046088E080932B0107C0EEE2F1E0A2E9B1E05D
S113047024E331E0E7CFDF91CF911F910F91FF90FB
S1130480EF90DF90BF90AF909F908F9008958091F0
S11304902F01833011F40E94ED0080912F018630EA
S11304A011F40E94510180912F01803111F40E94B6
S11304B09F0108951F920F920FB60F9211242F934C
S11304C03F934F935F936F937F938F939F93AF93D8
S11304D0BF93EF93FF930E945F0090915A02913073
S11304E021F492E090935A0202C0923061F4909108
S11304F02D01943640F4E92FF0E0E25DFE4F808355
S11305009F5F90932D0116BCFF91EF91BF91AF9126
S11305109F918F917F916F915F914F913F912F9117
S11305200F900FBE0F901F9018951F920F920FB649
S11305300F9211242F933F934F935F936F937F9365
S11305408F939F93AF93BF93EF93FF9381E0809337
S11305505A02E0912C0180912B01E81760F4F0E03D
S1130560EE56FE4F80818093C60080912C018F5FF0
S113057080932C0119C081E0809328010E9485009A
S113058080912A01882381F00E94470283E08093AE
S11305905A0210922801809192018093C6008091A2
S11305A02C018F5F80932C01FF91EF91BF91AF914C
S11305B09F918F917F916F915F914F913F912F9177
S11305C00F900FBE0F901F9018951F920F920FB6A9
S11305D00F9211242F933F934F935F936F937F93C5
S11305E08F939F93AF93BF93EF93FF9316BC809128
S11305F05A02823051F584E080935A020E94C70067
S11306008093290195E090935A028130C9F4809136
S11306102801811104C081E080932A0116C00E9440
S1130620470283E080935A0210922801809192013C
S11306308093C60080912C018F5F80932C0103C0AE
S113064081E080935A020E947A00FF91EF91BF915A
S1130650AF919F918F917F916F915F914F913F9156
S11306602F910F900FBE0F901F90189582E084B9C0
S1130670E0E8F0E0808182688083E1E8F0E0808156
S1130680886180838FEF9FEF90938700809386002B
S11306900895E1E8F0E0808181608083089520E09E
S11306A030E048EC52E40E948B0320E030E040E864
S11306B057E40E947D040E94FD03709389006093B7
S11306C088000895FC011486158616861786108AFC
S11306D0118A128A138A108E118E128E138E089527
S11306E0259A0E9490000E9436030E94490380E0EC
S11306F091E00E9462037894CBE5D2E0688D798D15
S11307008A8D9B8D0E944F038FE39CE90197F1F73B
S113071000C00000F3CF0E949F030C9443040E9486
S11307203C0458F00E94350440F029F45F3F29F05E
S11307300C942C0451110C9477040C9432040E94F0
S1130740540468F39923B1F3552391F3951B550B86
S1130750BB27AA2762177307840738F09F5F5F4F90
S1130760220F331F441FAA1FA9F335D00E2E3AF0CF
S1130770E0E832D091505040E695001CCAF72BD0E7
S1130780FE2F29D0660F771F881FBB1F2617370738
S11307904807AB07B0E809F0BB0B802DBF01FF276A
S11307A093585F4F3AF09E3F510578F00C942C0417
S11307B00C9477045F3FE4F3983ED4F386957795E1
S11307C06795B795F7959F5FC9F7880F911D969523
S11307D0879597F90895E1E0660F771F881FBB1F7F
S11307E0621773078407BA0720F0621B730B840B2C
S11307F0BA0BEE1F88F7E09508950E945C0488F018
S11308009F5798F0B92F9927B751B0F0E1F0660FD0
S1130810771F881F991F1AF0BA95C9F714C0B13011
S113082091F00E947604B1E008950C947604672F49
S1130830782F8827B85F39F0B93FCCF38695779540
S11308406795B395D9F73EF4909580957095619529
S11308507F4F8F4F9F4F089597F99F6780E870E00F
S113086060E008959FEF80EC089500240A94161622
S1130870170618060906089500240A94121613068A
S1130880140605060895092E0394000C11F4882318
S113089052F0BB0F40F4BF2B11F460FF04C06F5F34
S11308A07F4F8F4F9F4F089557FD9058440F551F0A
S11308B059F05F3F71F04795880F97FB991F61F0DE
S11308C09F3F79F087950895121613061406551F55
S11308D0F2CF4695F1DF08C0161617061806991FC1
S11308E0F1CF86957105610508940895E894BB27B6
S11308F066277727CB0197F908950E9490040C94FA
S113090043040E94350438F00E943C0420F09523EF
S113091011F00C942C040C94320411240C947704DC
S11309200E94540470F3959FC1F3950F50E0551F36
S1130930629FF001729FBB27F00DB11D639FAA2730
S1130940F00DB11DAA1F649F6627B00DA11D661F7F
S1130950829F2227B00DA11D621F739FB00DA11DA0
S1130960621F839FA00D611D221F749F3327A00D5A
S1130970611D231F849F600D211D822F762F6A2FF6
S113098011249F5750409AF0F1F088234AF0EE0F5B
S1130990FF1FBB1F661F771F881F91505040A9F788
S11309A09E3F510580F00C942C040C9477045F3F17
S11309B0E4F3983ED4F3869577956795B795F795C4
S11309C0E7959F5FC1F7FE2B880F911D969587953C
S10B09D097F90895F894FFCF94
S11309D80000803F0AD7233C00000000000000000C
S11309E800000000000000000000000000000000FB
S10D09F8000000000000000001FAF6
S9030000FC
